{
	"contracts/SampleContract.sol": {
		"Wallet": {
			"abi": [
				{
					"inputs": [],
					"stateMutability": "nonpayable",
					"type": "constructor"
				},
				{
					"inputs": [],
					"name": "changeCounter",
					"outputs": [
						{
							"internalType": "uint256",
							"name": "",
							"type": "uint256"
						}
					],
					"stateMutability": "view",
					"type": "function"
				},
				{
					"inputs": [],
					"name": "getMystorage",
					"outputs": [
						{
							"internalType": "uint256",
							"name": "",
							"type": "uint256"
						}
					],
					"stateMutability": "view",
					"type": "function"
				},
				{
					"inputs": [],
					"name": "myAdress",
					"outputs": [
						{
							"internalType": "address",
							"name": "",
							"type": "address"
						}
					],
					"stateMutability": "view",
					"type": "function"
				},
				{
					"inputs": [],
					"name": "myStorage",
					"outputs": [
						{
							"internalType": "uint256",
							"name": "",
							"type": "uint256"
						}
					],
					"stateMutability": "view",
					"type": "function"
				},
				{
					"inputs": [],
					"name": "myValue",
					"outputs": [
						{
							"internalType": "uint256",
							"name": "",
							"type": "uint256"
						}
					],
					"stateMutability": "view",
					"type": "function"
				},
				{
					"inputs": [
						{
							"internalType": "uint256",
							"name": "_NewAdd",
							"type": "uint256"
						},
						{
							"internalType": "uint256",
							"name": "_NewDiff",
							"type": "uint256"
						},
						{
							"internalType": "uint256",
							"name": "_newVar",
							"type": "uint256"
						}
					],
					"name": "setMyStorage",
					"outputs": [
						{
							"internalType": "uint256",
							"name": "",
							"type": "uint256"
						}
					],
					"stateMutability": "nonpayable",
					"type": "function"
				},
				{
					"inputs": [],
					"name": "someAdress",
					"outputs": [
						{
							"internalType": "address",
							"name": "",
							"type": "address"
						}
					],
					"stateMutability": "view",
					"type": "function"
				}
			],
			"devdoc": {
				"kind": "dev",
				"methods": {},
				"version": 1
			},
			"evm": {
				"assembly": "    /* \"contracts/SampleContract.sol\":57:857  contract Wallet {... */\n  mstore(0x40, 0x80)\n    /* \"contracts/SampleContract.sol\":224:276  constructor() {... */\n  callvalue\n  dup1\n  iszero\n  tag_1\n  jumpi\n  0x00\n  dup1\n  revert\ntag_1:\n  pop\n    /* \"contracts/SampleContract.sol\":259:269  msg.sender */\n  caller\n    /* \"contracts/SampleContract.sol\":248:256  myAdress */\n  0x01\n  0x00\n    /* \"contracts/SampleContract.sol\":248:269  myAdress = msg.sender */\n  0x0100\n  exp\n  dup2\n  sload\n  dup2\n  0xffffffffffffffffffffffffffffffffffffffff\n  mul\n  not\n  and\n  swap1\n  dup4\n  0xffffffffffffffffffffffffffffffffffffffff\n  and\n  mul\n  or\n  swap1\n  sstore\n  pop\n    /* \"contracts/SampleContract.sol\":57:857  contract Wallet {... */\n  dataSize(sub_0)\n  dup1\n  dataOffset(sub_0)\n  0x00\n  codecopy\n  0x00\n  return\nstop\n\nsub_0: assembly {\n        /* \"contracts/SampleContract.sol\":57:857  contract Wallet {... */\n      mstore(0x40, 0x80)\n      callvalue\n      dup1\n      iszero\n      tag_1\n      jumpi\n      0x00\n      dup1\n      revert\n    tag_1:\n      pop\n      jumpi(tag_2, lt(calldatasize, 0x04))\n      shr(0xe0, calldataload(0x00))\n      dup1\n      0x8c450dd2\n      gt\n      tag_10\n      jumpi\n      dup1\n      0x8c450dd2\n      eq\n      tag_6\n      jumpi\n      dup1\n      0xaaf4389a\n      eq\n      tag_7\n      jumpi\n      dup1\n      0xdb671f30\n      eq\n      tag_8\n      jumpi\n      dup1\n      0xf76eddd1\n      eq\n      tag_9\n      jumpi\n      jump(tag_2)\n    tag_10:\n      dup1\n      0x07c1d126\n      eq\n      tag_3\n      jumpi\n      dup1\n      0x47f1aae7\n      eq\n      tag_4\n      jumpi\n      dup1\n      0x6ca14bfd\n      eq\n      tag_5\n      jumpi\n    tag_2:\n      0x00\n      dup1\n      revert\n        /* \"contracts/SampleContract.sol\":164:185  uint public myStorage */\n    tag_3:\n      tag_11\n      tag_12\n      jump\t// in\n    tag_11:\n      mload(0x40)\n      tag_13\n      swap2\n      swap1\n      tag_14\n      jump\t// in\n    tag_13:\n      mload(0x40)\n      dup1\n      swap2\n      sub\n      swap1\n      return\n        /* \"contracts/SampleContract.sol\":79:98  uint public myValue */\n    tag_4:\n      tag_15\n      tag_16\n      jump\t// in\n    tag_15:\n      mload(0x40)\n      tag_17\n      swap2\n      swap1\n      tag_14\n      jump\t// in\n    tag_17:\n      mload(0x40)\n      dup1\n      swap2\n      sub\n      swap1\n      return\n        /* \"contracts/SampleContract.sol\":104:127  address public myAdress */\n    tag_5:\n      tag_18\n      tag_19\n      jump\t// in\n    tag_18:\n      mload(0x40)\n      tag_20\n      swap2\n      swap1\n      tag_21\n      jump\t// in\n    tag_20:\n      mload(0x40)\n      dup1\n      swap2\n      sub\n      swap1\n      return\n        /* \"contracts/SampleContract.sol\":370:853  function setMyStorage(uint  _NewAdd, uint  _NewDiff, uint  _newVar) public returns(uint) {... */\n    tag_6:\n      tag_22\n      0x04\n      dup1\n      calldatasize\n      sub\n      dup2\n      add\n      swap1\n      tag_23\n      swap2\n      swap1\n      tag_24\n      jump\t// in\n    tag_23:\n      tag_25\n      jump\t// in\n    tag_22:\n      mload(0x40)\n      tag_26\n      swap2\n      swap1\n      tag_14\n      jump\t// in\n    tag_26:\n      mload(0x40)\n      dup1\n      swap2\n      sub\n      swap1\n      return\n        /* \"contracts/SampleContract.sol\":192:217  uint public changeCounter */\n    tag_7:\n      tag_27\n      tag_28\n      jump\t// in\n    tag_27:\n      mload(0x40)\n      tag_29\n      swap2\n      swap1\n      tag_14\n      jump\t// in\n    tag_29:\n      mload(0x40)\n      dup1\n      swap2\n      sub\n      swap1\n      return\n        /* \"contracts/SampleContract.sol\":282:365  function getMystorage() public view returns(uint) {... */\n    tag_8:\n      tag_30\n      tag_31\n      jump\t// in\n    tag_30:\n      mload(0x40)\n      tag_32\n      swap2\n      swap1\n      tag_14\n      jump\t// in\n    tag_32:\n      mload(0x40)\n      dup1\n      swap2\n      sub\n      swap1\n      return\n        /* \"contracts/SampleContract.sol\":133:158  address public someAdress */\n    tag_9:\n      tag_33\n      tag_34\n      jump\t// in\n    tag_33:\n      mload(0x40)\n      tag_35\n      swap2\n      swap1\n      tag_21\n      jump\t// in\n    tag_35:\n      mload(0x40)\n      dup1\n      swap2\n      sub\n      swap1\n      return\n        /* \"contracts/SampleContract.sol\":164:185  uint public myStorage */\n    tag_12:\n      sload(0x03)\n      dup2\n      jump\t// out\n        /* \"contracts/SampleContract.sol\":79:98  uint public myValue */\n    tag_16:\n      sload(0x00)\n      dup2\n      jump\t// out\n        /* \"contracts/SampleContract.sol\":104:127  address public myAdress */\n    tag_19:\n      0x01\n      0x00\n      swap1\n      sload\n      swap1\n      0x0100\n      exp\n      swap1\n      div\n      0xffffffffffffffffffffffffffffffffffffffff\n      and\n      dup2\n      jump\t// out\n        /* \"contracts/SampleContract.sol\":370:853  function setMyStorage(uint  _NewAdd, uint  _NewDiff, uint  _newVar) public returns(uint) {... */\n    tag_25:\n        /* \"contracts/SampleContract.sol\":453:457  uint */\n      0x00\n        /* \"contracts/SampleContract.sol\":487:495  myAdress */\n      0x01\n      0x00\n      swap1\n      sload\n      swap1\n      0x0100\n      exp\n      swap1\n      div\n      0xffffffffffffffffffffffffffffffffffffffff\n      and\n        /* \"contracts/SampleContract.sol\":473:495  msg.sender == myAdress */\n      0xffffffffffffffffffffffffffffffffffffffff\n      and\n        /* \"contracts/SampleContract.sol\":473:483  msg.sender */\n      caller\n        /* \"contracts/SampleContract.sol\":473:495  msg.sender == myAdress */\n      0xffffffffffffffffffffffffffffffffffffffff\n      and\n      sub\n        /* \"contracts/SampleContract.sol\":469:822  if (msg.sender == myAdress){... */\n      tag_37\n      jumpi\n        /* \"contracts/SampleContract.sol\":523:531  _NewDiff */\n      dup3\n        /* \"contracts/SampleContract.sol\":513:520  _NewAdd */\n      dup5\n        /* \"contracts/SampleContract.sol\":513:531  _NewAdd > _NewDiff */\n      gt\n        /* \"contracts/SampleContract.sol\":510:812  if(_NewAdd > _NewDiff) {... */\n      iszero\n      tag_38\n      jumpi\n        /* \"contracts/SampleContract.sol\":551:564  changeCounter */\n      0x04\n      0x00\n        /* \"contracts/SampleContract.sol\":551:566  changeCounter++ */\n      dup2\n      sload\n      dup1\n      swap3\n      swap2\n      swap1\n      tag_39\n      swap1\n      tag_40\n      jump\t// in\n    tag_39:\n      swap2\n      swap1\n      pop\n      sstore\n      pop\n        /* \"contracts/SampleContract.sol\":606:613  _NewAdd */\n      dup4\n        /* \"contracts/SampleContract.sol\":594:603  myStorage */\n      sload(0x03)\n        /* \"contracts/SampleContract.sol\":594:613  myStorage + _NewAdd */\n      tag_41\n      swap2\n      swap1\n      tag_42\n      jump\t// in\n    tag_41:\n        /* \"contracts/SampleContract.sol\":584:613  _newVar = myStorage + _NewAdd */\n      swap2\n      pop\n        /* \"contracts/SampleContract.sol\":510:812  if(_NewAdd > _NewDiff) {... */\n      jump(tag_43)\n    tag_38:\n        /* \"contracts/SampleContract.sol\":649:656  _NewAdd */\n      dup4\n        /* \"contracts/SampleContract.sol\":638:646  _NewDiff */\n      dup4\n        /* \"contracts/SampleContract.sol\":638:656  _NewDiff > _NewAdd */\n      gt\n        /* \"contracts/SampleContract.sol\":634:812  if (_NewDiff > _NewAdd) {... */\n      iszero\n      tag_44\n      jumpi\n        /* \"contracts/SampleContract.sol\":676:689  changeCounter */\n      0x04\n      0x00\n        /* \"contracts/SampleContract.sol\":676:691  changeCounter++ */\n      dup2\n      sload\n      dup1\n      swap3\n      swap2\n      swap1\n      tag_45\n      swap1\n      tag_40\n      jump\t// in\n    tag_45:\n      swap2\n      swap1\n      pop\n      sstore\n      pop\n        /* \"contracts/SampleContract.sol\":731:739  _NewDiff */\n      dup3\n        /* \"contracts/SampleContract.sol\":719:728  myStorage */\n      sload(0x03)\n        /* \"contracts/SampleContract.sol\":719:739  myStorage + _NewDiff */\n      tag_46\n      swap2\n      swap1\n      tag_42\n      jump\t// in\n    tag_46:\n        /* \"contracts/SampleContract.sol\":709:739  _newVar = myStorage + _NewDiff */\n      swap2\n      pop\n        /* \"contracts/SampleContract.sol\":634:812  if (_NewDiff > _NewAdd) {... */\n      jump(tag_47)\n    tag_44:\n        /* \"contracts/SampleContract.sol\":790:797  _newVar */\n      dup2\n        /* \"contracts/SampleContract.sol\":778:787  myStorage */\n      0x03\n        /* \"contracts/SampleContract.sol\":778:797  myStorage = _newVar */\n      dup2\n      swap1\n      sstore\n      pop\n        /* \"contracts/SampleContract.sol\":634:812  if (_NewDiff > _NewAdd) {... */\n    tag_47:\n        /* \"contracts/SampleContract.sol\":510:812  if(_NewAdd > _NewDiff) {... */\n    tag_43:\n        /* \"contracts/SampleContract.sol\":469:822  if (msg.sender == myAdress){... */\n    tag_37:\n        /* \"contracts/SampleContract.sol\":839:846  _newVar */\n      dup2\n        /* \"contracts/SampleContract.sol\":832:846  return _newVar */\n      swap1\n      pop\n        /* \"contracts/SampleContract.sol\":370:853  function setMyStorage(uint  _NewAdd, uint  _NewDiff, uint  _newVar) public returns(uint) {... */\n      swap4\n      swap3\n      pop\n      pop\n      pop\n      jump\t// out\n        /* \"contracts/SampleContract.sol\":192:217  uint public changeCounter */\n    tag_28:\n      sload(0x04)\n      dup2\n      jump\t// out\n        /* \"contracts/SampleContract.sol\":282:365  function getMystorage() public view returns(uint) {... */\n    tag_31:\n        /* \"contracts/SampleContract.sol\":326:330  uint */\n      0x00\n        /* \"contracts/SampleContract.sol\":349:358  myStorage */\n      sload(0x03)\n        /* \"contracts/SampleContract.sol\":342:358  return myStorage */\n      swap1\n      pop\n        /* \"contracts/SampleContract.sol\":282:365  function getMystorage() public view returns(uint) {... */\n      swap1\n      jump\t// out\n        /* \"contracts/SampleContract.sol\":133:158  address public someAdress */\n    tag_34:\n      0x02\n      0x00\n      swap1\n      sload\n      swap1\n      0x0100\n      exp\n      swap1\n      div\n      0xffffffffffffffffffffffffffffffffffffffff\n      and\n      dup2\n      jump\t// out\n        /* \"#utility.yul\":7:84   */\n    tag_49:\n        /* \"#utility.yul\":44:51   */\n      0x00\n        /* \"#utility.yul\":73:78   */\n      dup2\n        /* \"#utility.yul\":62:78   */\n      swap1\n      pop\n        /* \"#utility.yul\":7:84   */\n      swap2\n      swap1\n      pop\n      jump\t// out\n        /* \"#utility.yul\":90:208   */\n    tag_50:\n        /* \"#utility.yul\":177:201   */\n      tag_63\n        /* \"#utility.yul\":195:200   */\n      dup2\n        /* \"#utility.yul\":177:201   */\n      tag_49\n      jump\t// in\n    tag_63:\n        /* \"#utility.yul\":172:175   */\n      dup3\n        /* \"#utility.yul\":165:202   */\n      mstore\n        /* \"#utility.yul\":90:208   */\n      pop\n      pop\n      jump\t// out\n        /* \"#utility.yul\":214:436   */\n    tag_14:\n        /* \"#utility.yul\":307:311   */\n      0x00\n        /* \"#utility.yul\":345:347   */\n      0x20\n        /* \"#utility.yul\":334:343   */\n      dup3\n        /* \"#utility.yul\":330:348   */\n      add\n        /* \"#utility.yul\":322:348   */\n      swap1\n      pop\n        /* \"#utility.yul\":358:429   */\n      tag_65\n        /* \"#utility.yul\":426:427   */\n      0x00\n        /* \"#utility.yul\":415:424   */\n      dup4\n        /* \"#utility.yul\":411:428   */\n      add\n        /* \"#utility.yul\":402:408   */\n      dup5\n        /* \"#utility.yul\":358:429   */\n      tag_50\n      jump\t// in\n    tag_65:\n        /* \"#utility.yul\":214:436   */\n      swap3\n      swap2\n      pop\n      pop\n      jump\t// out\n        /* \"#utility.yul\":442:568   */\n    tag_51:\n        /* \"#utility.yul\":479:486   */\n      0x00\n        /* \"#utility.yul\":519:561   */\n      0xffffffffffffffffffffffffffffffffffffffff\n        /* \"#utility.yul\":512:517   */\n      dup3\n        /* \"#utility.yul\":508:562   */\n      and\n        /* \"#utility.yul\":497:562   */\n      swap1\n      pop\n        /* \"#utility.yul\":442:568   */\n      swap2\n      swap1\n      pop\n      jump\t// out\n        /* \"#utility.yul\":574:670   */\n    tag_52:\n        /* \"#utility.yul\":611:618   */\n      0x00\n        /* \"#utility.yul\":640:664   */\n      tag_68\n        /* \"#utility.yul\":658:663   */\n      dup3\n        /* \"#utility.yul\":640:664   */\n      tag_51\n      jump\t// in\n    tag_68:\n        /* \"#utility.yul\":629:664   */\n      swap1\n      pop\n        /* \"#utility.yul\":574:670   */\n      swap2\n      swap1\n      pop\n      jump\t// out\n        /* \"#utility.yul\":676:794   */\n    tag_53:\n        /* \"#utility.yul\":763:787   */\n      tag_70\n        /* \"#utility.yul\":781:786   */\n      dup2\n        /* \"#utility.yul\":763:787   */\n      tag_52\n      jump\t// in\n    tag_70:\n        /* \"#utility.yul\":758:761   */\n      dup3\n        /* \"#utility.yul\":751:788   */\n      mstore\n        /* \"#utility.yul\":676:794   */\n      pop\n      pop\n      jump\t// out\n        /* \"#utility.yul\":800:1022   */\n    tag_21:\n        /* \"#utility.yul\":893:897   */\n      0x00\n        /* \"#utility.yul\":931:933   */\n      0x20\n        /* \"#utility.yul\":920:929   */\n      dup3\n        /* \"#utility.yul\":916:934   */\n      add\n        /* \"#utility.yul\":908:934   */\n      swap1\n      pop\n        /* \"#utility.yul\":944:1015   */\n      tag_72\n        /* \"#utility.yul\":1012:1013   */\n      0x00\n        /* \"#utility.yul\":1001:1010   */\n      dup4\n        /* \"#utility.yul\":997:1014   */\n      add\n        /* \"#utility.yul\":988:994   */\n      dup5\n        /* \"#utility.yul\":944:1015   */\n      tag_53\n      jump\t// in\n    tag_72:\n        /* \"#utility.yul\":800:1022   */\n      swap3\n      swap2\n      pop\n      pop\n      jump\t// out\n        /* \"#utility.yul\":1109:1226   */\n    tag_55:\n        /* \"#utility.yul\":1218:1219   */\n      0x00\n        /* \"#utility.yul\":1215:1216   */\n      dup1\n        /* \"#utility.yul\":1208:1220   */\n      revert\n        /* \"#utility.yul\":1355:1477   */\n    tag_57:\n        /* \"#utility.yul\":1428:1452   */\n      tag_77\n        /* \"#utility.yul\":1446:1451   */\n      dup2\n        /* \"#utility.yul\":1428:1452   */\n      tag_49\n      jump\t// in\n    tag_77:\n        /* \"#utility.yul\":1421:1426   */\n      dup2\n        /* \"#utility.yul\":1418:1453   */\n      eq\n        /* \"#utility.yul\":1408:1471   */\n      tag_78\n      jumpi\n        /* \"#utility.yul\":1467:1468   */\n      0x00\n        /* \"#utility.yul\":1464:1465   */\n      dup1\n        /* \"#utility.yul\":1457:1469   */\n      revert\n        /* \"#utility.yul\":1408:1471   */\n    tag_78:\n        /* \"#utility.yul\":1355:1477   */\n      pop\n      jump\t// out\n        /* \"#utility.yul\":1483:1622   */\n    tag_58:\n        /* \"#utility.yul\":1529:1534   */\n      0x00\n        /* \"#utility.yul\":1567:1573   */\n      dup2\n        /* \"#utility.yul\":1554:1574   */\n      calldataload\n        /* \"#utility.yul\":1545:1574   */\n      swap1\n      pop\n        /* \"#utility.yul\":1583:1616   */\n      tag_80\n        /* \"#utility.yul\":1610:1615   */\n      dup2\n        /* \"#utility.yul\":1583:1616   */\n      tag_57\n      jump\t// in\n    tag_80:\n        /* \"#utility.yul\":1483:1622   */\n      swap3\n      swap2\n      pop\n      pop\n      jump\t// out\n        /* \"#utility.yul\":1628:2247   */\n    tag_24:\n        /* \"#utility.yul\":1705:1711   */\n      0x00\n        /* \"#utility.yul\":1713:1719   */\n      dup1\n        /* \"#utility.yul\":1721:1727   */\n      0x00\n        /* \"#utility.yul\":1770:1772   */\n      0x60\n        /* \"#utility.yul\":1758:1767   */\n      dup5\n        /* \"#utility.yul\":1749:1756   */\n      dup7\n        /* \"#utility.yul\":1745:1768   */\n      sub\n        /* \"#utility.yul\":1741:1773   */\n      slt\n        /* \"#utility.yul\":1738:1857   */\n      iszero\n      tag_82\n      jumpi\n        /* \"#utility.yul\":1776:1855   */\n      tag_83\n      tag_55\n      jump\t// in\n    tag_83:\n        /* \"#utility.yul\":1738:1857   */\n    tag_82:\n        /* \"#utility.yul\":1896:1897   */\n      0x00\n        /* \"#utility.yul\":1921:1974   */\n      tag_84\n        /* \"#utility.yul\":1966:1973   */\n      dup7\n        /* \"#utility.yul\":1957:1963   */\n      dup3\n        /* \"#utility.yul\":1946:1955   */\n      dup8\n        /* \"#utility.yul\":1942:1964   */\n      add\n        /* \"#utility.yul\":1921:1974   */\n      tag_58\n      jump\t// in\n    tag_84:\n        /* \"#utility.yul\":1911:1974   */\n      swap4\n      pop\n        /* \"#utility.yul\":1867:1984   */\n      pop\n        /* \"#utility.yul\":2023:2025   */\n      0x20\n        /* \"#utility.yul\":2049:2102   */\n      tag_85\n        /* \"#utility.yul\":2094:2101   */\n      dup7\n        /* \"#utility.yul\":2085:2091   */\n      dup3\n        /* \"#utility.yul\":2074:2083   */\n      dup8\n        /* \"#utility.yul\":2070:2092   */\n      add\n        /* \"#utility.yul\":2049:2102   */\n      tag_58\n      jump\t// in\n    tag_85:\n        /* \"#utility.yul\":2039:2102   */\n      swap3\n      pop\n        /* \"#utility.yul\":1994:2112   */\n      pop\n        /* \"#utility.yul\":2151:2153   */\n      0x40\n        /* \"#utility.yul\":2177:2230   */\n      tag_86\n        /* \"#utility.yul\":2222:2229   */\n      dup7\n        /* \"#utility.yul\":2213:2219   */\n      dup3\n        /* \"#utility.yul\":2202:2211   */\n      dup8\n        /* \"#utility.yul\":2198:2220   */\n      add\n        /* \"#utility.yul\":2177:2230   */\n      tag_58\n      jump\t// in\n    tag_86:\n        /* \"#utility.yul\":2167:2230   */\n      swap2\n      pop\n        /* \"#utility.yul\":2122:2240   */\n      pop\n        /* \"#utility.yul\":1628:2247   */\n      swap3\n      pop\n      swap3\n      pop\n      swap3\n      jump\t// out\n        /* \"#utility.yul\":2253:2433   */\n    tag_59:\n        /* \"#utility.yul\":2301:2378   */\n      0x4e487b7100000000000000000000000000000000000000000000000000000000\n        /* \"#utility.yul\":2298:2299   */\n      0x00\n        /* \"#utility.yul\":2291:2379   */\n      mstore\n        /* \"#utility.yul\":2398:2402   */\n      0x11\n        /* \"#utility.yul\":2395:2396   */\n      0x04\n        /* \"#utility.yul\":2388:2403   */\n      mstore\n        /* \"#utility.yul\":2422:2426   */\n      0x24\n        /* \"#utility.yul\":2419:2420   */\n      0x00\n        /* \"#utility.yul\":2412:2427   */\n      revert\n        /* \"#utility.yul\":2439:2672   */\n    tag_40:\n        /* \"#utility.yul\":2478:2481   */\n      0x00\n        /* \"#utility.yul\":2501:2525   */\n      tag_89\n        /* \"#utility.yul\":2519:2524   */\n      dup3\n        /* \"#utility.yul\":2501:2525   */\n      tag_49\n      jump\t// in\n    tag_89:\n        /* \"#utility.yul\":2492:2525   */\n      swap2\n      pop\n        /* \"#utility.yul\":2547:2613   */\n      0xffffffffffffffffffffffffffffffffffffffffffffffffffffffffffffffff\n        /* \"#utility.yul\":2540:2545   */\n      dup3\n        /* \"#utility.yul\":2537:2614   */\n      sub\n        /* \"#utility.yul\":2534:2637   */\n      tag_90\n      jumpi\n        /* \"#utility.yul\":2617:2635   */\n      tag_91\n      tag_59\n      jump\t// in\n    tag_91:\n        /* \"#utility.yul\":2534:2637   */\n    tag_90:\n        /* \"#utility.yul\":2664:2665   */\n      0x01\n        /* \"#utility.yul\":2657:2662   */\n      dup3\n        /* \"#utility.yul\":2653:2666   */\n      add\n        /* \"#utility.yul\":2646:2666   */\n      swap1\n      pop\n        /* \"#utility.yul\":2439:2672   */\n      swap2\n      swap1\n      pop\n      jump\t// out\n        /* \"#utility.yul\":2678:2983   */\n    tag_42:\n        /* \"#utility.yul\":2718:2721   */\n      0x00\n        /* \"#utility.yul\":2737:2757   */\n      tag_93\n        /* \"#utility.yul\":2755:2756   */\n      dup3\n        /* \"#utility.yul\":2737:2757   */\n      tag_49\n      jump\t// in\n    tag_93:\n        /* \"#utility.yul\":2732:2757   */\n      swap2\n      pop\n        /* \"#utility.yul\":2771:2791   */\n      tag_94\n        /* \"#utility.yul\":2789:2790   */\n      dup4\n        /* \"#utility.yul\":2771:2791   */\n      tag_49\n      jump\t// in\n    tag_94:\n        /* \"#utility.yul\":2766:2791   */\n      swap3\n      pop\n        /* \"#utility.yul\":2925:2926   */\n      dup3\n        /* \"#utility.yul\":2857:2923   */\n      0xffffffffffffffffffffffffffffffffffffffffffffffffffffffffffffffff\n        /* \"#utility.yul\":2853:2927   */\n      sub\n        /* \"#utility.yul\":2850:2851   */\n      dup3\n        /* \"#utility.yul\":2847:2928   */\n      gt\n        /* \"#utility.yul\":2844:2951   */\n      iszero\n      tag_95\n      jumpi\n        /* \"#utility.yul\":2931:2949   */\n      tag_96\n      tag_59\n      jump\t// in\n    tag_96:\n        /* \"#utility.yul\":2844:2951   */\n    tag_95:\n        /* \"#utility.yul\":2975:2976   */\n      dup3\n        /* \"#utility.yul\":2972:2973   */\n      dup3\n        /* \"#utility.yul\":2968:2977   */\n      add\n        /* \"#utility.yul\":2961:2977   */\n      swap1\n      pop\n        /* \"#utility.yul\":2678:2983   */\n      swap3\n      swap2\n      pop\n      pop\n      jump\t// out\n\n    auxdata: 0xa264697066735822122064223a0d32ac92f1494a3c9da598deff974e9418b9c94ca5dc2b1c26db9d533a64736f6c634300080f0033\n}\n",
				"bytecode": {
					"linkReferences": {},
					"object": "608060405234801561001057600080fd5b5033600160006101000a81548173ffffffffffffffffffffffffffffffffffffffff021916908373ffffffffffffffffffffffffffffffffffffffff1602179055506104ba806100616000396000f3fe608060405234801561001057600080fd5b506004361061007d5760003560e01c80638c450dd21161005b5780638c450dd2146100dc578063aaf4389a1461010c578063db671f301461012a578063f76eddd1146101485761007d565b806307c1d1261461008257806347f1aae7146100a05780636ca14bfd146100be575b600080fd5b61008a610166565b60405161009791906102bc565b60405180910390f35b6100a861016c565b6040516100b591906102bc565b60405180910390f35b6100c6610172565b6040516100d39190610318565b60405180910390f35b6100f660048036038101906100f19190610364565b610198565b60405161010391906102bc565b60405180910390f35b61011461026d565b60405161012191906102bc565b60405180910390f35b610132610273565b60405161013f91906102bc565b60405180910390f35b61015061027d565b60405161015d9190610318565b60405180910390f35b60035481565b60005481565b600160009054906101000a900473ffffffffffffffffffffffffffffffffffffffff1681565b6000600160009054906101000a900473ffffffffffffffffffffffffffffffffffffffff1673ffffffffffffffffffffffffffffffffffffffff163373ffffffffffffffffffffffffffffffffffffffff16036102635782841115610224576004600081548092919061020a906103e6565b91905055508360035461021d919061042e565b9150610262565b83831115610259576004600081548092919061023f906103e6565b919050555082600354610252919061042e565b9150610261565b816003819055505b5b5b8190509392505050565b60045481565b6000600354905090565b600260009054906101000a900473ffffffffffffffffffffffffffffffffffffffff1681565b6000819050919050565b6102b6816102a3565b82525050565b60006020820190506102d160008301846102ad565b92915050565b600073ffffffffffffffffffffffffffffffffffffffff82169050919050565b6000610302826102d7565b9050919050565b610312816102f7565b82525050565b600060208201905061032d6000830184610309565b92915050565b600080fd5b610341816102a3565b811461034c57600080fd5b50565b60008135905061035e81610338565b92915050565b60008060006060848603121561037d5761037c610333565b5b600061038b8682870161034f565b935050602061039c8682870161034f565b92505060406103ad8682870161034f565b9150509250925092565b7f4e487b7100000000000000000000000000000000000000000000000000000000600052601160045260246000fd5b60006103f1826102a3565b91507fffffffffffffffffffffffffffffffffffffffffffffffffffffffffffffffff8203610423576104226103b7565b5b600182019050919050565b6000610439826102a3565b9150610444836102a3565b9250827fffffffffffffffffffffffffffffffffffffffffffffffffffffffffffffffff03821115610479576104786103b7565b5b82820190509291505056fea264697066735822122064223a0d32ac92f1494a3c9da598deff974e9418b9c94ca5dc2b1c26db9d533a64736f6c634300080f0033",
					"opcodes": "PUSH1 0x80 PUSH1 0x40 MSTORE CALLVALUE DUP1 ISZERO PUSH2 0x10 JUMPI PUSH1 0x0 DUP1 REVERT JUMPDEST POP CALLER PUSH1 0x1 PUSH1 0x0 PUSH2 0x100 EXP DUP2 SLOAD DUP2 PUSH20 0xFFFFFFFFFFFFFFFFFFFFFFFFFFFFFFFFFFFFFFFF MUL NOT AND SWAP1 DUP4 PUSH20 0xFFFFFFFFFFFFFFFFFFFFFFFFFFFFFFFFFFFFFFFF AND MUL OR SWAP1 SSTORE POP PUSH2 0x4BA DUP1 PUSH2 0x61 PUSH1 0x0 CODECOPY PUSH1 0x0 RETURN INVALID PUSH1 0x80 PUSH1 0x40 MSTORE CALLVALUE DUP1 ISZERO PUSH2 0x10 JUMPI PUSH1 0x0 DUP1 REVERT JUMPDEST POP PUSH1 0x4 CALLDATASIZE LT PUSH2 0x7D JUMPI PUSH1 0x0 CALLDATALOAD PUSH1 0xE0 SHR DUP1 PUSH4 0x8C450DD2 GT PUSH2 0x5B JUMPI DUP1 PUSH4 0x8C450DD2 EQ PUSH2 0xDC JUMPI DUP1 PUSH4 0xAAF4389A EQ PUSH2 0x10C JUMPI DUP1 PUSH4 0xDB671F30 EQ PUSH2 0x12A JUMPI DUP1 PUSH4 0xF76EDDD1 EQ PUSH2 0x148 JUMPI PUSH2 0x7D JUMP JUMPDEST DUP1 PUSH4 0x7C1D126 EQ PUSH2 0x82 JUMPI DUP1 PUSH4 0x47F1AAE7 EQ PUSH2 0xA0 JUMPI DUP1 PUSH4 0x6CA14BFD EQ PUSH2 0xBE JUMPI JUMPDEST PUSH1 0x0 DUP1 REVERT JUMPDEST PUSH2 0x8A PUSH2 0x166 JUMP JUMPDEST PUSH1 0x40 MLOAD PUSH2 0x97 SWAP2 SWAP1 PUSH2 0x2BC JUMP JUMPDEST PUSH1 0x40 MLOAD DUP1 SWAP2 SUB SWAP1 RETURN JUMPDEST PUSH2 0xA8 PUSH2 0x16C JUMP JUMPDEST PUSH1 0x40 MLOAD PUSH2 0xB5 SWAP2 SWAP1 PUSH2 0x2BC JUMP JUMPDEST PUSH1 0x40 MLOAD DUP1 SWAP2 SUB SWAP1 RETURN JUMPDEST PUSH2 0xC6 PUSH2 0x172 JUMP JUMPDEST PUSH1 0x40 MLOAD PUSH2 0xD3 SWAP2 SWAP1 PUSH2 0x318 JUMP JUMPDEST PUSH1 0x40 MLOAD DUP1 SWAP2 SUB SWAP1 RETURN JUMPDEST PUSH2 0xF6 PUSH1 0x4 DUP1 CALLDATASIZE SUB DUP2 ADD SWAP1 PUSH2 0xF1 SWAP2 SWAP1 PUSH2 0x364 JUMP JUMPDEST PUSH2 0x198 JUMP JUMPDEST PUSH1 0x40 MLOAD PUSH2 0x103 SWAP2 SWAP1 PUSH2 0x2BC JUMP JUMPDEST PUSH1 0x40 MLOAD DUP1 SWAP2 SUB SWAP1 RETURN JUMPDEST PUSH2 0x114 PUSH2 0x26D JUMP JUMPDEST PUSH1 0x40 MLOAD PUSH2 0x121 SWAP2 SWAP1 PUSH2 0x2BC JUMP JUMPDEST PUSH1 0x40 MLOAD DUP1 SWAP2 SUB SWAP1 RETURN JUMPDEST PUSH2 0x132 PUSH2 0x273 JUMP JUMPDEST PUSH1 0x40 MLOAD PUSH2 0x13F SWAP2 SWAP1 PUSH2 0x2BC JUMP JUMPDEST PUSH1 0x40 MLOAD DUP1 SWAP2 SUB SWAP1 RETURN JUMPDEST PUSH2 0x150 PUSH2 0x27D JUMP JUMPDEST PUSH1 0x40 MLOAD PUSH2 0x15D SWAP2 SWAP1 PUSH2 0x318 JUMP JUMPDEST PUSH1 0x40 MLOAD DUP1 SWAP2 SUB SWAP1 RETURN JUMPDEST PUSH1 0x3 SLOAD DUP2 JUMP JUMPDEST PUSH1 0x0 SLOAD DUP2 JUMP JUMPDEST PUSH1 0x1 PUSH1 0x0 SWAP1 SLOAD SWAP1 PUSH2 0x100 EXP SWAP1 DIV PUSH20 0xFFFFFFFFFFFFFFFFFFFFFFFFFFFFFFFFFFFFFFFF AND DUP2 JUMP JUMPDEST PUSH1 0x0 PUSH1 0x1 PUSH1 0x0 SWAP1 SLOAD SWAP1 PUSH2 0x100 EXP SWAP1 DIV PUSH20 0xFFFFFFFFFFFFFFFFFFFFFFFFFFFFFFFFFFFFFFFF AND PUSH20 0xFFFFFFFFFFFFFFFFFFFFFFFFFFFFFFFFFFFFFFFF AND CALLER PUSH20 0xFFFFFFFFFFFFFFFFFFFFFFFFFFFFFFFFFFFFFFFF AND SUB PUSH2 0x263 JUMPI DUP3 DUP5 GT ISZERO PUSH2 0x224 JUMPI PUSH1 0x4 PUSH1 0x0 DUP2 SLOAD DUP1 SWAP3 SWAP2 SWAP1 PUSH2 0x20A SWAP1 PUSH2 0x3E6 JUMP JUMPDEST SWAP2 SWAP1 POP SSTORE POP DUP4 PUSH1 0x3 SLOAD PUSH2 0x21D SWAP2 SWAP1 PUSH2 0x42E JUMP JUMPDEST SWAP2 POP PUSH2 0x262 JUMP JUMPDEST DUP4 DUP4 GT ISZERO PUSH2 0x259 JUMPI PUSH1 0x4 PUSH1 0x0 DUP2 SLOAD DUP1 SWAP3 SWAP2 SWAP1 PUSH2 0x23F SWAP1 PUSH2 0x3E6 JUMP JUMPDEST SWAP2 SWAP1 POP SSTORE POP DUP3 PUSH1 0x3 SLOAD PUSH2 0x252 SWAP2 SWAP1 PUSH2 0x42E JUMP JUMPDEST SWAP2 POP PUSH2 0x261 JUMP JUMPDEST DUP2 PUSH1 0x3 DUP2 SWAP1 SSTORE POP JUMPDEST JUMPDEST JUMPDEST DUP2 SWAP1 POP SWAP4 SWAP3 POP POP POP JUMP JUMPDEST PUSH1 0x4 SLOAD DUP2 JUMP JUMPDEST PUSH1 0x0 PUSH1 0x3 SLOAD SWAP1 POP SWAP1 JUMP JUMPDEST PUSH1 0x2 PUSH1 0x0 SWAP1 SLOAD SWAP1 PUSH2 0x100 EXP SWAP1 DIV PUSH20 0xFFFFFFFFFFFFFFFFFFFFFFFFFFFFFFFFFFFFFFFF AND DUP2 JUMP JUMPDEST PUSH1 0x0 DUP2 SWAP1 POP SWAP2 SWAP1 POP JUMP JUMPDEST PUSH2 0x2B6 DUP2 PUSH2 0x2A3 JUMP JUMPDEST DUP3 MSTORE POP POP JUMP JUMPDEST PUSH1 0x0 PUSH1 0x20 DUP3 ADD SWAP1 POP PUSH2 0x2D1 PUSH1 0x0 DUP4 ADD DUP5 PUSH2 0x2AD JUMP JUMPDEST SWAP3 SWAP2 POP POP JUMP JUMPDEST PUSH1 0x0 PUSH20 0xFFFFFFFFFFFFFFFFFFFFFFFFFFFFFFFFFFFFFFFF DUP3 AND SWAP1 POP SWAP2 SWAP1 POP JUMP JUMPDEST PUSH1 0x0 PUSH2 0x302 DUP3 PUSH2 0x2D7 JUMP JUMPDEST SWAP1 POP SWAP2 SWAP1 POP JUMP JUMPDEST PUSH2 0x312 DUP2 PUSH2 0x2F7 JUMP JUMPDEST DUP3 MSTORE POP POP JUMP JUMPDEST PUSH1 0x0 PUSH1 0x20 DUP3 ADD SWAP1 POP PUSH2 0x32D PUSH1 0x0 DUP4 ADD DUP5 PUSH2 0x309 JUMP JUMPDEST SWAP3 SWAP2 POP POP JUMP JUMPDEST PUSH1 0x0 DUP1 REVERT JUMPDEST PUSH2 0x341 DUP2 PUSH2 0x2A3 JUMP JUMPDEST DUP2 EQ PUSH2 0x34C JUMPI PUSH1 0x0 DUP1 REVERT JUMPDEST POP JUMP JUMPDEST PUSH1 0x0 DUP2 CALLDATALOAD SWAP1 POP PUSH2 0x35E DUP2 PUSH2 0x338 JUMP JUMPDEST SWAP3 SWAP2 POP POP JUMP JUMPDEST PUSH1 0x0 DUP1 PUSH1 0x0 PUSH1 0x60 DUP5 DUP7 SUB SLT ISZERO PUSH2 0x37D JUMPI PUSH2 0x37C PUSH2 0x333 JUMP JUMPDEST JUMPDEST PUSH1 0x0 PUSH2 0x38B DUP7 DUP3 DUP8 ADD PUSH2 0x34F JUMP JUMPDEST SWAP4 POP POP PUSH1 0x20 PUSH2 0x39C DUP7 DUP3 DUP8 ADD PUSH2 0x34F JUMP JUMPDEST SWAP3 POP POP PUSH1 0x40 PUSH2 0x3AD DUP7 DUP3 DUP8 ADD PUSH2 0x34F JUMP JUMPDEST SWAP2 POP POP SWAP3 POP SWAP3 POP SWAP3 JUMP JUMPDEST PUSH32 0x4E487B7100000000000000000000000000000000000000000000000000000000 PUSH1 0x0 MSTORE PUSH1 0x11 PUSH1 0x4 MSTORE PUSH1 0x24 PUSH1 0x0 REVERT JUMPDEST PUSH1 0x0 PUSH2 0x3F1 DUP3 PUSH2 0x2A3 JUMP JUMPDEST SWAP2 POP PUSH32 0xFFFFFFFFFFFFFFFFFFFFFFFFFFFFFFFFFFFFFFFFFFFFFFFFFFFFFFFFFFFFFFFF DUP3 SUB PUSH2 0x423 JUMPI PUSH2 0x422 PUSH2 0x3B7 JUMP JUMPDEST JUMPDEST PUSH1 0x1 DUP3 ADD SWAP1 POP SWAP2 SWAP1 POP JUMP JUMPDEST PUSH1 0x0 PUSH2 0x439 DUP3 PUSH2 0x2A3 JUMP JUMPDEST SWAP2 POP PUSH2 0x444 DUP4 PUSH2 0x2A3 JUMP JUMPDEST SWAP3 POP DUP3 PUSH32 0xFFFFFFFFFFFFFFFFFFFFFFFFFFFFFFFFFFFFFFFFFFFFFFFFFFFFFFFFFFFFFFFF SUB DUP3 GT ISZERO PUSH2 0x479 JUMPI PUSH2 0x478 PUSH2 0x3B7 JUMP JUMPDEST JUMPDEST DUP3 DUP3 ADD SWAP1 POP SWAP3 SWAP2 POP POP JUMP INVALID LOG2 PUSH5 0x6970667358 0x22 SLT KECCAK256 PUSH5 0x223A0D32AC SWAP3 CALL 0x49 0x4A EXTCODECOPY SWAP14 0xA5 SWAP9 0xDE SELFDESTRUCT SWAP8 0x4E SWAP5 XOR 0xB9 0xC9 0x4C 0xA5 0xDC 0x2B SHR 0x26 0xDB SWAP14 MSTORE8 GASPRICE PUSH5 0x736F6C6343 STOP ADDMOD 0xF STOP CALLER "
				},
				"gasEstimates": {
					"creation": {
						"codeDepositCost": "242000",
						"executionCost": "24547",
						"totalCost": "266547"
					},
					"external": {
						"changeCounter()": "2451",
						"getMystorage()": "2481",
						"myAdress()": "2559",
						"myStorage()": "2430",
						"myValue()": "2452",
						"setMyStorage(uint256,uint256,uint256)": "infinite",
						"someAdress()": "2580"
					}
				},
				"methodIdentifiers": {
					"changeCounter()": "aaf4389a",
					"getMystorage()": "db671f30",
					"myAdress()": "6ca14bfd",
					"myStorage()": "07c1d126",
					"myValue()": "47f1aae7",
					"setMyStorage(uint256,uint256,uint256)": "8c450dd2",
					"someAdress()": "f76eddd1"
				}
			},
			"storageLayout": {
				"storage": [
					{
						"astId": 3,
						"contract": "contracts/SampleContract.sol:Wallet",
						"label": "myValue",
						"offset": 0,
						"slot": "0",
						"type": "t_uint256"
					},
					{
						"astId": 5,
						"contract": "contracts/SampleContract.sol:Wallet",
						"label": "myAdress",
						"offset": 0,
						"slot": "1",
						"type": "t_address"
					},
					{
						"astId": 7,
						"contract": "contracts/SampleContract.sol:Wallet",
						"label": "someAdress",
						"offset": 0,
						"slot": "2",
						"type": "t_address"
					},
					{
						"astId": 9,
						"contract": "contracts/SampleContract.sol:Wallet",
						"label": "myStorage",
						"offset": 0,
						"slot": "3",
						"type": "t_uint256"
					},
					{
						"astId": 11,
						"contract": "contracts/SampleContract.sol:Wallet",
						"label": "changeCounter",
						"offset": 0,
						"slot": "4",
						"type": "t_uint256"
					}
				],
				"types": {
					"t_address": {
						"encoding": "inplace",
						"label": "address",
						"numberOfBytes": "20"
					},
					"t_uint256": {
						"encoding": "inplace",
						"label": "uint256",
						"numberOfBytes": "32"
					}
				}
			},
			"userdoc": {
				"kind": "user",
				"methods": {},
				"version": 1
			}
		}
	}
}